:1020000000800020A9770000917700009177000000
:1020100000000000000000000000000000000000C0
:1020200000000000000000000000000091770000A8
:10203000000000000000000091770000FD77000024
:102040009177000091770000917700009177000070
:1020500045750000917700009177000095770000AA
:102060009177000091770000917700009177000050
:1020700091770000917700009D5900009177000052
:102080009177000091770000917700009177000030
:102090000000000091770000917700009177000028
:1020A0009177000091770000917700009177000010
:1020B0000000000010B5064C2378002B07D1054B1B
:1020C000002B02D0044800E000BF0123237010BDA4
:1020D000A00100200000000014C9000008B5084B52
:1020E000002B03D00748084900E000BF07480368F9
:1020F000002B03D0064B002B00D0984708BDC046EC
:102100000000000014C90000A4010020900100207C
:1021100000000000014B08330360704730C000002E
:1021200010B5044B041C0833036005F0BDFB201CF4
:1021300010BDC04630C0000038B50D1C00210A1C7F
:10214000041C03F015FC094B201C083323601C30D1
:1021500003F0A4F96B68201C2362AB686362EB6830
:10216000A3622A7C231C2C331A7038BD30C00000B7
:1021700010B50949041C05F04AFA0F2005F0FCFCD3
:10218000642802D9201C054901E00549201C05F0FE
:102190006BFA201C10BDC0469AC60000A0BF00000C
:1021A000A8BF000007B5002300930348191C1A1CA0
:1021B00004F090FC07BDC046BC010020F0B5574FAD
:1021C00091B05749061C381C04F024FD554C01A859
:1021D000211C05F01CFA04A8211C05F018FA341C77
:1021E0001C34201C03F000F9002800D186E0201CDC
:1021F00003F0C4F80028F2D04B490DA805F007FA07
:1022000001A80DA905F0AFFA051C0DA805F0B8F955
:10221000002D02D004A845490FE045490DA805F05E
:10222000F6F901A80DA905F09EFA051C0DA805F008
:10223000A7F9002D03D03F4904A805F015FA201C8A
:1022400003F076F8C5B2291C381C03F0F1FB0A2D07
:102250004CD1039B002B44D10DA8311CFFF788FF04
:1022600004A80DA905F072FA051C0DA805F088F95F
:10227000002DF1D1201C304904F0CCFC201C2F494A
:1022800004F0C8FC201C2E4904F0C4FC2D49201C7D
:1022900004F0C0FC201C04F0ABFC0AA82A4905F09D
:1022A000B6F907A8311CFFF763FF07A90AA805F0D4
:1022B0000FFA264905F01AFA011C0DA805F0CAF913
:1022C0000DA9201C04F09CFC0DA805F059F907A8E5
:1022D00005F056F90AA805F053F9201C04F088FC13
:1022E0000CE001A80F4905F0BFF978E70D2D00D1EA
:1022F00075E701A8291C05F0E1F970E7201C03F03F
:102300002FF81349381C04F085FC04A805F038F9AF
:1023100001A805F035F911B0F0BDC0466C050020EC
:1023200090BF00009AC600009BBF0000A0BF000045
:10233000A3BF0000A8BF0000ACBF0000BCBF0000EE
:10234000E9BF0000F9BF00000BC0000017C000008B
:102350001AC00000002070477047000037B51B4CC2
:102360001B49201C04F032FC1A4D281C02F01FFEF1
:10237000011C201C04F04EFC281C02F016FE011C5F
:10238000684604F0B5FB201C134904F01FFC6946A5
:10239000201C04F049FC281C02F016FE0F49051C05
:1023A000201C04F013FC0A22291C201C04F06DFCE4
:1023B000201C0B4904F02EFC201C0A4904F006FCEA
:1023C000201C094904F030FC37BDC0466C050020D4
:1023D00050C00000D803002057C0000064C00000B7
:1023E0007CC0000081C00000D801002007B5002398
:1023F000191C1A1C0093084804F06CFB6F2300930F
:10240000C021A8220123054804F064FB04485021A0
:1024100003F032F907BDC046C4010020D8010020F6
:10242000CC010020F7B51E4C9621201C890103F039
:1024300091FB0620002105F009FC1A4E251C301CDA
:1024400002F0F0FDFF2804D1201C174904F0E2FB44
:10245000FEE7164B301C0093154B69465B680193F1
:1024600002F07EFD134C2368032B12D0281C124966
:1024700004F0ACFB114F281C391C04F0CBFB301CC2
:10248000391C0F4A02F0B4FC20600E4805F0CAF96E
:10249000E8E70D4803F040F9FFF760FFF7BDC046DD
:1024A0006C050020D8030020B7C0000090C60000D3
:1024B000D8010020E0010020CFC000000D00002066
:1024C0000400002010270000CC01002000B597B0C8
:1024D00068461049002203F025F9684602F038FFEB
:1024E000002814D0019A029B05A94A608B60039AC8
:1024F000094BCA6005936A46137C0AA80B74FFF760
:102500001BFE0AA8FFF75AFE0AA8FFF703FE17B042
:1025100000BDC046CC01002038C20000014B08338A
:1025200003607047F8C0000010B5044B041C08336A
:10253000036005F0B9F9201C10BDC046F8C00000CA
:1025400010B5094B0B2108330360031C0022FF2444
:1025500001391A715C719A811A625A629A6228333F
:102560009142F3D110BDC046F8C0000010B5041C64
:10257000081C111C1A1C00F0D3FC002806DD2823BF
:1025800043430122E3181A71FF225A7110BD000063
:1025900070B5061C0D1C081C111C1A1C00F034FD23
:1025A000002816DB28246C4304233419237105F01A
:1025B00033F9061C2379042B05D105F02DF90D4BB9
:1025C000801B984212D9217901220023052903D0CA
:1025D0002271002460B270BDA381141C062DF9DDA8
:1025E000281C191C1A1C00F053FEF3E7002001F010
:1025F000C1FADFE7CF07000070B5061C0D1C081CF0
:10260000111C00F033FD002815DB28246C43062341
:102610003419237105F000F9051C2379062B05D127
:1026200005F0FAF8074B401B984207D9237901209F
:10263000072B01D02071002040B270BD002001F0B6
:1026400099FAEAE7CF07000013B504AC01CC208863
:102650000090081C111C1A1C049B00F06FFE16BD94
:10266000F7B5071C0D1C161C081C111C1A1C00F0C9
:1026700021FD002812DB28246C4302233C1923711E
:1026800005F0CAF801902379022B0AD105F0C4F8AD
:10269000019A114B801A984219D902E0002358B2CE
:1026A000FEBD22790023032A02D001222271F6E71F
:1026B00028216943A381728876687F187A82191C61
:1026C0001A1C7E61281C00F077FD0123E7E700203B
:1026D00001F050FAD7E7C0461F4E000038B5041C81
:1026E00000200D1C01F046FA28235D43641920796F
:1026F000033843425841C0B238BD38B5041C0020ED
:102700000D1C01F037FA28235D436419207907383E
:1027100043425841C0B238BD38B5041C00200D1CDE
:1027200001F028FA28210B1C6B43E3181A79032ABD
:1027300002D00020052A05D14D4364190C22985E71
:10274000A36AC01838BD28235A4310B58918041C41
:10275000496904F0CDF9201C10BD282359434018C5
:10276000408A7047F8B5071C00200D1C1C1C161C65
:1027700001F000FA28236B43FF183B79032B09D0A3
:10278000002010E00E30FBD1074B18780028F7D15D
:1027900001F0F0F9A2B2281C311C002300F0C2FCA9
:1027A0000028EFDB201CF8BDAE030020F8B50D1C9F
:1027B00028246C43061C3419002001F0DBF923792E
:1027C000032B01D0052B0AD10C22A35E002B06DDC2
:1027D0000022A281101C111C012301F02BF8002300
:1027E00023712827FF2363713B1C6B43F318186A7E
:1027F000002801D007F0F0FA6F430023F619336286
:102800007362B362281CA38100F012FDF8BD282377
:102810005A438018407940B2411A484248417047B3
:1028200070B5041C00200E1C01F0A4F9221C00232A
:1028300005215156DDB2B1420FD1117908290CD1D1
:1028400028225343E418032323710023A38168B291
:10285000191C1A1C00F0B0FC04E001332832072BCD
:10286000E6D1FF2568B270BDF7B528274F43C719D9
:102870003A6A3E1C041C0D1C18360192002A07D12E
:10288000B820C00007F09EFA019BB060F060BB6208
:1028900028210E1C6E43A6190C22B35EB8221F1C01
:1028A000D200934200DD171C4D43FB1A64195942B4
:1028B0004B41DBB2BAB2B068216A00F0BBFF251C05
:1028C00000231835984209D1AB68EB60A762B26863
:1028D000D319B360B389DF1BB7810123181CFEBD78
:1028E00070B50C1C28266643051CAE19002001F0AB
:1028F00041F93379032B04D0052B02D0012040424B
:102900001CE0281C211CFFF707FF0028F6D0282315
:102910006343EB189B6A002B05D028235C432D19D9
:102920006B6A18780AE00C22B35E002BF5D0281CE5
:10293000211CFFF799FF0028EFD1DFE770BDF0B54C
:10294000051C87B000200C1C0193059201F012F9C0
:1029500028236343EB1804931B79032B03D0052B27
:1029600001D000205DE0281C211CFFF7D5FE0028C7
:10297000F7DD0199814200DD019000220292019A67
:10298000002A10D028236343EB189B6A002B11D137
:1029900004990C23CB5E002B0CD0281C211CFFF7C4
:1029A00063FF002806D128236343ED18AB6A002B90
:1029B00023D035E02822131C6343EB189B6A019E49
:1029C0009E4200DD1E1C6243AA18171C516A039226
:1029D0000598321C07F00AFA7A6A93197B62039B06
:1029E000996A8A1B9A620299059A019B92199B1B0C
:1029F0008919059201930291C1E7049902980C2369
:102A0000CB5E002B0DD1201C191C1A1C062C02DCDD
:102A100000F0D2FB01E000F03BFC002001F0AAF83E
:102A2000029807B0F0BD70B5041C501E08286FD87E
:102A300005F0CCFA05106E213C466E6E4600002B68
:102A40000AD01B785BB2002B06D1282359430523FB
:102A5000641805E0002B05D128235943012364188D
:102A6000237155E01B785BB2002BF5D12823594325
:102A700007236418F4E7002B4AD0002018560028DA
:102A800046DB2822504308252018057100201856DF
:102A90005043201841710021595604334A43A41869
:102AA000103407CB07C41B68236031E0002BD3D060
:102AB0005B787F2BD0D82823594303236418CFE7B2
:102AC000988802B2002A03DC201CFFF76FFE1FE08B
:102AD00028224A43A2181579032D01D0052D11D1C2
:102AE0001D6890819560062908DD28224A43A218B6
:102AF0001032083361CB61C21B681360201CFFF7E2
:102B0000B3FE05E00020011C021C012300F092FE30
:102B100070BD000038B5051C0C1C131C291C024894
:102B2000221CFFF780FF38BDEC01002013B5002305
:102B3000191C1A1C0093064803F0CCFF054C201CFE
:102B4000FFF7FEFC201C0449044A07F0FDF813BD02
:102B5000E4010020EC0100201D2500000000002001
:102B600073B5061C01F070F9294B0005000D002417
:102B700098424BD9274801A901F022FB041E45D1F8
:102B8000019B254D25492B4019432248019101F015
:102B90001BFB2348211C002E20D001F015FBAB218C
:102BA000204801F011FB01211F4801F00DFB211C01
:102BB0001E4801F009FB1E48812101F005FB1D485C
:102BC00001F0FAFA0128FAD1019B80211D40490247
:102BD00029431048019101F0F7FA17E001F0F4FAE7
:102BE000B921104801F0F0FA01210F4801F0ECFA88
:102BF000211C0E4801F0E8FA0D48812101F0E4FAA9
:102C00000C4801F0D9FA0128FAD1DDE760B276BDAF
:102C10009F03000010140000FF8F88F800101101BE
:102C2000080201000C020100140201001C02010054
:102C30000402010018020100F0B50F1C9BB0141C27
:102C4000412801D0542816D109AD201C291C04228A
:102C5000002300F0EFFD002800D02CE16B7805AADE
:102C60001370964B1968002900D124E100201B68DD
:102C70002856012117E0422817D109AD101C291C44
:102C80000422002300F0D6FD002800D013E16B7869
:102C900005AA1370894B1968002900D10BE10020A7
:102CA0001B6828560221984705E143283FD105AD0E
:102CB000101C291C0C22002300F0BCFD002800D0B1
:102CC000F9E0697A48B200281FDB0823EB567C4AFA
:102CD0001B01D318DE7A00011318F6B2DE7201264A
:102CE0009E726C89083CA4B21C81764B1C88A41986
:102CF000A4B21C801C88002C03D11C88A419A4B287
:102D00001C801B8810189BB2C38009AA0223117073
:102D100093806B886968D380684B9160196800293B
:102D200000D1C8E008201B6828560421BBE74428CE
:102D300001D04B2821D109AD201C291C04220023DD
:102D400000F078FD002800D0B5E0287805AA1070C2
:102D50006B785370002B07D1698843B2584C0839FF
:102D60001B0189B2E3181981544B1968002900D15D
:102D7000A1E01B6840B2052195E74A2812D1101C3A
:102D800009A94422002300F055FD002800D092E05C
:102D90004D4B1A68002A00D18DE01B68199909A8CB
:102DA000984788E0462803D0482803D04D2847D1CB
:102DB000062600E0092605AD1022201C291C002350
:102DC00000F038FD021E76D1EB890C2001932856C5
:102DD0003B490301CB1800931A736B89298903932C
:102DE0008C4669886D6809ABDD60009D5981E98872
:102DF000019D8D421CD161460DB23049002D0BDD85
:102E0000BD4209DA314D01272F7065469D80039D33
:102E1000DA8064191C6003E062469A8000220992FD
:102E20000A68002A47D00C681A1C311CA04742E0EF
:102E3000102F40D9101C111C012300F0FBFC3AE0BC
:102E4000452803D0472803D04C281ED1072600E090
:102E5000082609AD201C291C0822002300F0EAFCEA
:102E6000002828D128786B8805AA40B2144CA9887C
:102E700013800301E318DB8899421CD10F4B1968BA
:102E8000002918D01B68311C0DE7522813D109AD59
:102E9000101C291C1422012300F0CCFC00280AD1AC
:102EA0000B4B696819601A68002A04D01B682868EF
:102EB000A9682A7C98471BB0F0BDC046AC0C002026
:102EC000FC0B0020AC030020B40C0020AE0300205B
:102ED000B00C002038B5094D2C78E4B2002C0CD190
:102EE0000748211CB02201F090FD0220054900F0A6
:102EF000CDFC01232B70044B1C8038BDAA0300209D
:102F0000FC0B0020392C0000AC030020024B1860A1
:102F1000024B19607047C046AC0C0020B40C002076
:102F2000F0B5171C89B002285FD101291AD10726F4
:102F3000304D07212B782C78DBB2287805932E4B67
:102F400024010130E41805F0EFF8C9B22970A37A22
:102F5000002B02D1059BDDB21EE0013EF6B2002E31
:102F6000E6D142E0022940D10422244B24491D78B5
:102F70001C780320240164181978EDB20131014056
:102F80001970A37A002B02D10735EDB204E0013AA3
:102F9000D2B2002AE9D128E06BB2002B26DB102246
:102FA000201C002101F031FD0123A372154B1A886A
:102FB000013292B21A801A88002A03D11A8801328B
:102FC00092B21A801B889BB2E380FB070ED52123A7
:102FD000E37207AA00231570502100930193029316
:102FE0000220042300F0AEFA00E0FF2568B209B029
:102FF000F0BDC046A9030020FC0B0020A803002060
:103000006C0C0020AC030020F0B589B0002927D05B
:10301000002825DB144F0601BC19A37A0834DBB263
:10302000012B1DD1002A1BD0E27854251A4200D171
:10303000412505AC20720822201CBE1901F0DCFCE1
:10304000F388022063810023009301930293291CDB
:10305000221C0C2300F076FA002802D0F72000E0B2
:10306000FA2040B209B0F0BDFC0B00207FB500286B
:1030700019DB0F4A0301D3181A1C08329278012A6F
:1030800011D105AA10705170DB88022053800023F3
:103090000093019302934221042300F053FA002885
:1030A00002D0F72000E0FA2040B207B000BDC046D1
:1030B000FC0B0020F0B5141C89B000282CDB002983
:1030C0002AD0174F0601BB199A7A0833D2B2012AC7
:1030D00022D1002C20D0DC784425A446674605ACDC
:1030E000174202D0DB784B25637220720822201C25
:1030F00001F082FC0A4F0220BE19F388291C63816B
:103100000023009301930293221C0C2300F01AFA6F
:10311000002802D0F72000E0FA2040B209B0F0BD4C
:10312000FC0B0020F0B50D1C89B0002835DB002910
:1031300033D0AF23DB009A422FD81A4906018C19ED
:10314000231C08339B78012B27D104AB18705A80BD
:10315000E4889C814424062800DC50248919CE7A16
:103160004520F7070AD50C890F49A4B208680F4912
:10317000884201D94C2001E04C2055248021014394
:10318000019200951A1C02941023022000F0DAF933
:103190000023984202D0064B00E0064B18B209B05B
:1031A000F0BDC046FC0B0020BC0300203F13000014
:1031B000F2FF0000FAFF0000F0B587B000282CDB1A
:1031C000184F05017C19A67AA446F6B20834012EE0
:1031D00023D1E95161468A802179002291421DD193
:1031E0002671E2784D21324200D14621002B01D1D7
:1031F00001235B4204AA107104937D19EB8800241B
:10320000D3800220009401940294082300F09AF9DC
:10321000221CA04202D0044A00E0044A10B207B0C7
:10322000F0BDC046FC0B0020F2FF0000FAFF0000DA
:10323000F0B587B0002824DB144E05017419A77A75
:10324000211CFFB20831012F1BD105AA1070E388A1
:10325000538000238B70E380C8784E21384200D120
:1032600049210093019302930220042300F06AF99C
:10327000041E00D0F72470190021102201F0C5FBB4
:1032800000E0FA2460B207B0F0BDC046FC0B00209D
:10329000F0B589B0049200282EDB194A05015719B0
:1032A0003C1C0834A6789446F6B2012E24D1A278AC
:1032B000002A01D1002320E06246A950049ABA8076
:1032C0002279002AF6D12671002B01D101235B421D
:1032D00006AA107106936544EB880024D38002206F
:1032E0000823009401940294482100F02BF9231C38
:1032F000A04202D0034B00E0034B18B209B0F0BD6E
:10330000FC0B0020F2FF0000FAFF00001FB5041CB8
:1033100001F083FBC3B2402B0BD80021C0B2431C89
:10332000009101910291221C4A21022000F00AF929
:1033300000E0FA2040B204B010BD0000F0B599B032
:103340001EAC2488059400287DDB002B7BD0404EEA
:103350000501741904940834A778FFB2012F72D1C3
:1033600002295AD106286EDCE6783E426BD0012A4B
:1033700008D11868E378002802D01943E1704AE0C8
:103380008B430BE0032A0BD11868E2781023002846
:1033900002D01343E3703EE09A43131CE37053E002
:1033A000042A0FD11B68002B05D0294F40227D191C
:1033B000EB7A134304E0264A5519EB7A40229343F3
:1033C000EB7228E0022A3ED1059C3F2C3BD8204ED0
:1033D00006AC20707519EA88059F191C00266280CA
:1033E000022508A840226570079701F005FB0096AA
:1033F00001960296281C5121221C482300F0A2F8B5
:10340000033008D1009601960296281CD121221C77
:10341000482300F097F8002016E01B6806AC6271A4
:10342000049A20710693D3880220E380002300933E
:10343000019302934F21221C082300F083F80028F7
:1034400002D0F72000E0FA2040B219B0F0BDC0462B
:10345000FC0B0020024BDA780132D2B2DA707047EE
:10346000B80C00207047000007B50B4A002313700A
:103470000A4A0120937001F0C7FB094801A900F036
:103480009FFE002806D1019B0221194304480191A7
:1034900000F09AFE40B20EBDAE030020B80C002032
:1034A0007010000010B50B4C0020A37883420FD1A0
:1034B0006378834205D0637800200133DBB2637008
:1034C00006E02378002BF6D000F043FD0028F2D070
:1034D00040B210BDB80C0020044B5A78002A03D02B
:1034E0005A78013AD2B25A7000207047B80C0020C6
:1034F00008B5094B5A78002A03D05A78013AD2B25B
:103500005A705A780020824204D11B78834201D03D
:1035100000F0F0FC40B208BDB80C002010B5064C1D
:103520000021201C282201F070FA044801F05AFB07
:10353000034B0020E36110BDB80C0020553400009F
:1035400065340000F0B58BB01D1C10AB0F1C02CB16
:1035500002921B887F22019312AB1B883A4003938F
:1035600006AB5A70082218705A80061C5A88002927
:1035700004D001998A1803998A1800E0AA1892B217
:103580005A80FFF78FFF031C002B00D095E06A469E
:103590000893D3820793079B3F021E430796079B1E
:1035A00006AE1F430797079A738845481B041343C9
:1035B0000793079900F008FE041E00D07AE00790F8
:1035C000079B02221343079307993E4800F0FCFD36
:1035D000041E6FD16B460890D8826C461634228840
:1035E000394B9A4205D8374807A900F0E9FD002871
:1035F00003D0089B002B1BD158E0F4232288FF3313
:103600009A4203D90120238801F09EFA079F0223E2
:103610001F4007D12D4808A900F0D2FD041EE8D0B4
:10362000089747E06B46DA8A013292B2DA82D4E731
:10363000089B311C0993738808229BB273800998F8
:1036400000F0E6FD041E35D1099B02990833099369
:10365000002908D009982A1C00F0DAFD041E29D19F
:10366000099BEB180993109A002A0FD00399099B24
:103670004D1BED180995111C0998019A00F0C8FD21
:10368000041E17D1099B019AD3180993089B0222A3
:103690009B000793079B0E4813430793079900F07D
:1036A00093FD041E06D1FFF723FF06E0FFF720FF7E
:1036B000FD2002E0FFF710FF201C40B20BB0F0BD70
:1036C0008C10000078100000E703000000041500D3
:1036D0006C100000F0B5534B87B01A78002A04D163
:1036E000514BDA781D1C002A01D1002696E0DA78C9
:1036F000013AD2B2DA704D4803A900F061FD061E0E
:1037000000D083E0039B0122134200D17EE001F050
:103710007BFA039B0122934303930399434800F0F0
:1037200053FD061E72D10123AB70039BFE269B0442
:103730001B0D01936AD0059005A93D4800F040FD9E
:10374000071E0ED1019A059804AC6860211CAA607E
:10375000042200F03DFD6388071C9BB2061C6380B9
:1037600003D0012001F050FA4FE06388019A9342A0
:1037700008D06388D31A042B04DD012001F044FA39
:10378000FA2742E02378012B04D1EB68002B31D0DB
:10379000EB6827E02378022B04D12B69002B29D07A
:1037A0002B691FE02378042B04D16B69002B21D0F7
:1037B0006B6917E02378062B04D12B6A002B19D0F4
:1037C0002B6A0FE02378072B04D1AB69002B11D0B3
:1037D000AB6907E02378FA27052B16D16B6A002B1B
:1037E00008D06B6A60786188059A0839C0B289B2DE
:1037F000083298470B4A1378002B07D1AB78002B7F
:1038000004D0FFF731FE071E00D03E1C054A137896
:10381000002B03D1002E00D06DE761E770B207B036
:10382000F0BDC046AE030020B80C002070100000B0
:1038300084100000F8B51D1C002803D0002901D019
:10384000002A02D1002D18D11AE00F4CA3689A4229
:1038500016D86368984213D36368A7688618FB1864
:103860009E420DD800F0B4FC00280AD16368A2681B
:10387000D318B34201D0002D03D0FFF7F5FD00E0CF
:10388000F42040B2F8BDC046B80C0020013800B5A5
:10389000F423062814D80B4B04F098FB06040A08FE
:1038A000100C0E0019610AE0D96008E0596106E0C9
:1038B000D96104E0196202E0996100E059620023D5
:1038C00058B200BDB80C00207FB50023059005203C
:1038D000009301930293011C05AA0423FFF732FE13
:1038E00007B000BD70B5041C9AB0151C2C287BD005
:1038F0001B2804D1101C01A90822002384E00628FB
:1039000003D1101C01A930227DE00E2800D1A1E0D6
:10391000322815D1504B10221968504B994200D9CA
:103920001422281C01A90023FFF784FF002800D0DF
:1039300090E04B4B1B68002B00D18BE032206CE0F9
:103940002F2808D101A80021642201F05EF8281C6C
:1039500001A96422D1E734280DD1101C01A9042249
:103960000023FFF767FF011E74D13D4B1B68002B3E
:1039700070D0201C6DE0112814D13A4A002301AC0C
:103980001370281C211C0422FFF754FF002861D16A
:10399000354B22781A70324B1B68002B5AD01120FD
:1039A000211C56E013280DD1101C01A92C22002344
:1039B000FFF740FF00284DD1294B1B68002B49D051
:1039C00013202AE004280DD1101C01A90422002391
:1039D000FFF730FF00283DD1214B1B68002B39D069
:1039E00004201AE0652803D1281C01A9042284E7D9
:1039F000092803D1101C01A9642204E02A280ED151
:103A0000101C01A904220123FFF714FF002821D173
:103A1000134B1B68002B1DD0201C01A919E0202886
:103A200018D101AE101C311C08220023FFF702FF41
:103A300000280FD1281C0830B28801990123FFF714
:103A4000F9FE002806D1064B1B68002B02D0201C73
:103A5000311C98471AB070BDBC0300204F13000002
:103A6000B0030020B4030020B503002010B5041EED
:103A70003BD000F0D2FF002837D0201C00F0CDFF53
:103A8000202832D8A31CDB7F013B0D2B2DD8231C13
:103A900041331B78002B09D1231C42331B78002BA8
:103AA00004D1231C43331B78002B1ED0231C3F332F
:103AB0001B78012B01D1002021E0032B17D1E31C3F
:103AC000DB7F013B032B10D8231DDB7F10229343A8
:103AD0000A2B0AD12434201C00F09FFF002804D0B8
:103AE000201C00F09AFF1A28E5D9F42007E0022BE9
:103AF000FBD10434E37F083B382BDCD9F5E740B237
:103B000010BD000070B58CB06B460126DE71073326
:103B1000002824D00168144A00251160134A181C9B
:103B2000157000F045FC041EAC4219D1FFF7F6FCFD
:103B3000041EAC420FD10E49301CFFF7A7FE02A8AD
:103B400000F0DCFB031C041C0C3309D102A800F0BC
:103B50007FFB041C04E0281C00F062FC00E0F4245D
:103B600060B20CB070BDC046B0030020B4030020AA
:103B7000E538000008B5FFF7ADFD08BD1FB500230F
:103B800000930193029329211A1C0120FFF7DAFC0C
:103B900005B000BDF0B5A5B01C1C2AAB1B88069073
:103BA00005932BAB1B780F1C161C0793012A03D11E
:103BB0007B1E1F2B1BD901E0002C01D1F4206CE0EF
:103BC000022AF5D1201C00F028FF4028F0D1002364
:103BD000E25C111C30393629F0D80A390629EDD9B2
:103BE000473A192AEAD90133402BF1D1E0E7059B86
:103BF000013B0D2B02D90599FF29DFD109AD68469C
:103C00003A1C6A30EF19069900F0F6FE3B1C40336F
:103C100000279F71059A6B462A33DA87079A531E4D
:103C20009A416B468B331A70263B1E70032E13D1BC
:103C300023782B70032BC1D862781023111C6A7073
:103C400099430A29BAD16846A11C263000F0D4FE57
:103C50006378EB189F7016E0022E0AD1201C00F04A
:103C6000DCFE431E9BB23F2BA8D8421C211C281C03
:103C700004E0042E05D1281C211C3E2200F0BCFECD
:103C800001E0012E9AD100230093019302930120B9
:103C900028212A1C6C23FFF755FC40B225B0F0BD4B
:103CA00013B504AC2488009400240194FFF772FF3C
:103CB00016BD1FB50023021C0093019302930A2135
:103CC00014230220FFF73EFC05B000BD1FB5002302
:103CD000414241410B310093019302931A1C02208F
:103CE000FFF730FC05B000BD1FB500230093019322
:103CF000029303211A1C0120FFF724FC05B000BD2C
:103D000010B5041CFFF7CEFB002806D1201C00F0E4
:103D10000DFA002801D1FFF7EBFB40B210BD000007
:103D2000F0B5051CB9B00C1C161C002837D0FFF7E5
:103D30009DFE071CF420002F32D105A8291C8822E3
:103D400000F05AFE201C00F068FE002827D0002C4E
:103D500025D027AD211C4022281C00F04DFE37AB9A
:103D60001E70114B114A1F70114B1968CC239142E0
:103D70000BD86B461633DA7F17A8013ADA77211C85
:103D8000402200F039FE2E708A2300220092019218
:103D90000292882105AA0120FFF7D4FB00E0F4205D
:103DA00040B239B0F0BDC046B40300204F1300004C
:103DB000BC0300201FB5002300930193029305214B
:103DC0001A1C0120FFF7BEFB05B000BD13B580240F
:103DD00064000443A520211C400100F0F5F9A52052
:103DE0000023400101A9019300F0EAF90028F1D174
:103DF000019BA342EED116BD07B50023114801A9CE
:103E0000019300F0DDF9002819D1019B80214900C0
:103E100019430C48019100F0D7F900280FD1D020A8
:103E2000400101A900F0CCF9002808D1019B8021B4
:103E30004902D02019434001019100F0C5F940B278
:103E40000EBDC04608140000F7B5214D2E682C1C8D
:103E5000002E3AD180204001291C00F0B1F9071E44
:103E600027D11C4801A900F0ABF9061E01D02F6034
:103E700029E02B68184A934204D1019A012A1AD0EA
:103E8000164B08E0164A934209D1019B032B12D02E
:103E9000042B02D1134B23600DE0134BFBE7134AB5
:103EA000934208D1EC208003291C00F089F90028F6
:103EB00001D02E6007E022680D4B1340A022D202F1
:103EC0001343236001E0002000E02068FEBDC046EF
:103ED000B8030020F4130000A0021000A10210009B
:103EE000B0021000B1021000B2021000F000100089
:103EF000FFFFF0FF13B5102001A900F061F90028C1
:103F000025D1019B01242342F5D1201C01A900F0F9
:103F100057F900281BD101990223194206D10B2021
:103F200001A900F04DF9002808D010E09943201CA9
:103F3000019100F049F90028F1D008E0019901232E
:103F4000194204D099430B20019100F03DF940B291
:103F500016BD37B500230B2069460093019300F08E
:103F60002FF9041E31D1009B01210B4206D0012004
:103F7000694600F025F9041E07D026E019430B20FE
:103F800000F022F9041EF2D01FE0009B02210B4238
:103F900001D0052506E01943012000F015F9041EA3
:103FA000F7D012E00F2001A900F00AF9041E0CD18D
:103FB000019B5B0707D40220013D00F0C5FD002DE9
:103FC000F0D1FC2401E000F0F3F860B23EBD000047
:103FD00038B5041C274800F0EFF8002803DB012067
:103FE00000F0B2FDF6E7244800F0E6F8C30709D573
:103FF000022C15D12149224800F0E6F88021214801
:1040000049031EE0204D012000F09EFD013D1F48A8
:1040100000F0D2F8002D2AD01D4B9842F3D1E7E7EB
:10402000032C06D11549164800F0CEF8154800219A
:1040300007E014481749042C03D100F0C5F8802488
:1040400002E000F0C1F80024FFF7FEFE124B00056D
:10405000000D984202D90220204300E0201CFFF707
:10406000B5FE0A480D4900F0AFF8002000E0FB2043
:1040700040B238BD14100000BC0702007DD51C3CC6
:10408000AC0702008C100000D10700000C000C00EF
:104090009ED0AD10521352139F030000612F52EFB8
:1040A00037B5134B02380093124B01931D1C0128A6
:1040B00003D8114B0093114B0193FA24E400002024
:1040C000019B83420AD0022000F03EFD013C009893
:1040D00000F072F8002CF3D1FB2407E0019B0024D0
:1040E000AB4203D10248211C00F06EF860B23EBD25
:1040F0008C10000036265302AC070200C3C15DD706
:1041000007B5A0200023400101A9019300F058F851
:10411000002807D1019B0449A020194040010191CA
:1041200000F052F840B20EBDFFFBFFFF30B587B084
:104130000023041C01A918480493059300F040F8DB
:10414000002825D1019B002B0BD0C02080021843F2
:1041500004A9082200F03CF8002819D1049A019221
:1041600005E00E4801A900F02BF8002810D1019AB3
:10417000C02093B28002184302A90622019300F0E6
:1041800027F802A9051C0622201C00F035FC281C7B
:1041900040B207B030BDC04608000C009C140000BF
:1041A00008B500F045FC08BD08B500F0A7FC08BD47
:1041B00008B500F0DAFA08BD08B500F0EBFA08BD62
:1041C00008B500F0EDFA08BD08B500F0F3FA08BD37
:1041D000F7B50E4B051C1C880191083C161CA4B2B7
:1041E0000027019BD919A64204D8B2B2281C00F0BE
:1041F0002BFB09E0281C221C00F026FB002803D121
:10420000361B3F192D19ECE740B2FEBD1E00002001
:10421000F7B50E4B051C1C880191083C161CA4B276
:104220000027019BD919A64204D8B2B2281C00F07D
:104230005DFB09E0281C221C00F058FB002803D17C
:10424000361B3F192D19ECE740B2FEBD1E000020C1
:1042500073B50023041C01A922480193FFF7B0FFA6
:10426000214B019A061C9A4204D1204801A9FFF76C
:10427000A7FF061C019B0F251A0C91B2080A2A40C1
:104280000909294062729AB22172110A12092A4060
:104290002B4021716271A371E071FFF7D5FD0023FE
:1042A00022792384A379617912022B4013430901F7
:1042B000FF2211400B430E4920600B60E179607AC8
:1042C000090205400D43217A09010A4009492A43A0
:1042D0008A4200D9F326084A934200D8F32670B2E6
:1042E00076BDC046AC070200C3C15DD748100000D0
:1042F000BC03002052130000511300007FB50021C1
:1043000002AD041C019102916960884201D1002034
:1043100042E0282200F079FB214801A9FFF750FF75
:10432000002839D10198002801D1F42034E0C026BA
:10433000B6023043291C0822FFF74AFF00282BD180
:10434000A88801900028F0D03043211C2822FFF7D4
:104350003FFF002820D12279A3790F2012020340C9
:1043600013436279FF2112010A4013430D4A13607F
:10437000627AE5790240207A2D0200012A43014049
:104380000A43002BD1D0002ACFD007498A4202D855
:10439000064A9342BBD8F32040B204B070BDC04679
:1043A00008000C00BC030020521300005113000051
:1043B00038B5002803D005786B1E032B00D90125E2
:1043C0000020FFF7EDFE041E28D1FFF73DFDFF247E
:1043D0002401E82320409B00984207D100F0F4F923
:1043E000281CFFF7F5FD041E16D108E0FFF72CFD91
:1043F000AC2320409B00F02498420DD1EEE7281C0E
:10440000FFF74EFE041E07D1023D012D06D9FFF72E
:10441000F3FC002802D0041CFFF7C6FE60B238BDD2
:1044200010B5FFF76DFE041E09D1FEF799FB041EBF
:1044300005D1FFF7B9FE041E01D100F0A5F960B265
:1044400010BD1FB501AB0190002219810320191C7A
:10445000029200F007FB05B000BD1FB501AB0022C2
:10446000029019810320191C019200F0FBFA05B09B
:1044700000BD73B56C46061C0734CF2806D0031C5C
:104480003B33DBB2012B01D90B250EE0201C0121AF
:10449000FFF7E3FF0028F7D000201CE02378B342A9
:1044A0000AD0013DEDB2002D06D0201C0121FFF7FE
:1044B000D4FF0028F2D0EFE70B25201C0121FFF7E5
:1044C000CCFF0028E8D12378002B03D0013DEDB2CA
:1044D000002DF2D1012040B276BD0000F0B585B0CC
:1044E00000900C1C019200278026B601B44200D82F
:1044F000A6B20A2568460B300121FFF7AEFF00285F
:1045000001D0002020E06A46D37A1B090F2B05D08A
:10451000013DADB22BB20133ECD1F2E72DB2002D4B
:10452000EFDD009BB6B238B21818311CFFF795FFCB
:104530000028E6D1019A002A09D0A41BF319A4B2DD
:104540009FB2002CD0D1012040B205B0F0BD054B88
:104550001B78002BF1D103A80221FFF77EFF002872
:10456000EBD0CEE7C003002030B585B008AC25788D
:1045700001AC2070C1380E2857D803F027FD212147
:10458000360E19192B2B4808565656561B000B0C85
:1045900063700B0AA370E17010E00B0ADBB2002D10
:1045A00002D08022524213436370A170002304E0C2
:1045B000002300E0FF236370A370E370052138E05F
:1045C0000A0C62700A0AA2701A0AE1702271637101
:1045D00007212EE00A0C62700A0AA2701A0C2271DE
:1045E0001A0AE1706271A3710FE00B0ADBB2002DB1
:1045F00002D08020404203436370130EE370130C1B
:104600002371130AA1706371A271082111E00B0CD0
:1046100063700B0AA370130E2371130C6371130ADA
:10462000E170A371E271092103E0002040B205B0FE
:1046300030BD0D4B4A1E1B78002B0DD17F2001335E
:104640004000994206D0E518013D2D786840074D9D
:10465000285CF4E7A05400E0D1B2201CFFF7F1FE83
:1046600043425841C0B2E1E7C003002008C1000046
:10467000F0B585B0071C03910A25302F02D801231D
:10468000C32601E00023C9260093301C391C039A7D
:104690000423FFF769FF041E012C05D1301CFFF72E
:1046A000E8FE041E012C13D0012000F04DFA002377
:1046B0000093191C1A1CCF20FFF756FF013DCF2095
:1046C000FFF7D7FEEDB2012000F03EFA002DD4D165
:1046D00060B205B0F0BDF0B587B0029003910A2733
:1046E000029AFF2A02D80126C42501E00026CA2525
:1046F0000096281C029900220423FFF735FF041EB0
:10470000012C1DD1281CFFF7B4FE041E012C17D16B
:1047100005AD281C0421321CFFF7E0FE041E012C0D
:104720000ED16A78AB7812021B0413432A78134324
:10473000EA7812061343039A136060B207B0F0BD23
:10474000012000F001FA00230093191C1A1CCF204D
:10475000FFF70AFFCF20FFF78CFE012000F0F4F9ED
:104760007B1EDFB2002FBBD1E7E713B50024211C6D
:10477000221C231C0094CF20FFF7F6FECF20FFF76A
:1047800078FE201C16BD0000014B002018707047F9
:10479000C003002007B501A9FFF79DFF01980EBDDA
:1047A00008B5FFF798FF012801D1002000E0FA20AA
:1047B00040B208BD08B5FFF75BFF012801D100201A
:1047C00000E0FA2040B208BD13B51D4C00231D487F
:1047D00001A901932370FFF77EFF002803D02378FF
:1047E000002B09D015E00123164801A92370FFF71B
:1047F00072FF0028F3D11DE0019A7C239A435021D7
:10480000114310480191FFF733FF002812D0012314
:104810002370802040016946FFF75DFF00280BD020
:104820000848FFF7B7FF702398435021014305481C
:10483000FFF7C0FF002000E0FA2040B216BDC046DE
:10484000C003002024E80000F0B5151C89B0002248
:10485000059004910A270392012D01D103950225A9
:1048600000260096C8200599321C2B1CFFF77CFE01
:10487000041E012C1CD1C820FFF7FBFD041E012CD7
:1048800016D1039BB3420AD0321C07A8291CFFF79C
:1048900025FE6A46137F049A041C137005E00498F1
:1048A000291C039AFFF71AFE041C63B2012B13D0D4
:1048B000012000F049F900230093191C1A1CCF2095
:1048C000FFF752FECF20FFF7D4FD012000F03CF9A6
:1048D0007B1EDFB2002FBFD164B2012C01D10020BA
:1048E00000E0FA2040B209B0F0BD0000F0B50A23A4
:1048F00089B004900591151C0393012D00D1022568
:1049000000260096C7200499321C2B1CFFF72CFEB2
:10491000012854D1C720FFF7ACFD01284FD107ABC8
:104920001E802C1C8023221C9B019C4200D91A1C37
:1049300092B20292002E04D103229C4205D9012298
:1049400003E00022A34252410232102368465B4238
:104950001B301A4301210270FFF773FD00282ED18E
:10496000059B30B218180299FFF76BFD002826D17D
:10497000204F3B78002B07D0029BE41A9E19A4B26B
:10498000B6B2002CCED106E007A80221FFF759FDF0
:104990000028F1D013E03E7807A8731E9E4102362E
:1049A000311CFFF75AFD002809D107AB9E19731E71
:1049B0001B78002B03D1023E3378C32B16D0012085
:1049C00000F0C2F800230093191C1A1CCF20FFF737
:1049D000CBFDCF20FFF74DFD012000F0B5F8039B84
:1049E000013BDBB20393002B87D1FA2460B209B0FC
:1049F000F0BDC046C003002010B500239A4203D08A
:104A0000CC5CC4540133F9E710BD8318002A03D0ED
:104A1000017001309842FBD17047021C031C1978C9
:104A2000981A80B2002901D00133F8E770470000DE
:104A300010B50A4800F0F2FE094C00202056012172
:104A400003F004F900202056012103F059F900F089
:104A500085F8012000F078F8002010BD88040020BF
:104A600023000020F0B585B003283DD16B460C68CB
:104A70000F3300220E894D681A70944206D0954279
:104A800030D10121019500911D1C03E00122009409
:104A900001921C1C164F174B381C06CB00F0EEFE83
:104AA000154B00201856002103F02AF9002E0FD0D4
:104AB0002178381C00F010FF009928704B424B41C0
:104AC0000199013EED184B424B41B6B2E418EDE7B7
:104AD000094A00201056012103F012F9381C00F099
:104AE000E9FE02E0FA2600E0FF2670B205B0F0BD54
:104AF00088040020C40300202300002008B50248D9
:104B000000F0B4FE002008BD88040020034B044AD6
:104B10001A6000225A711A717047C046C4030020FF
:104B2000001BB70008B5034B1B68002B00D098474B
:104B300008BDC046CC03002008B502F02FFC08BD1C
:104B400008B502F0C3FC08BD10B5041C002C04D04D
:104B5000012002F067FE013CF8E710BD10B50A4CD9
:104B60000020205600280DDB002103F0C9F8642046
:104B7000FFF7EAFF00202056012103F0C1F864206E
:104B8000FFF7E2FF10BDC0462100002010B5114B19
:104B90000022114C1A6000202056904207DB0121B0
:104BA00003F054F800202056012103F0A9F80B4B24
:104BB00000201856002103F049F8094B0020185630
:104BC000002802DB022103F041F8FFF7C7FF0020B5
:104BD00010BDC046CC030020210000202000002092
:104BE0002200002008B5054B05491860054B002040
:104BF00018560322FFF7A0FF08BDC046CC030020D3
:104C0000254B00002000002008B5074B002806D0E7
:104C10000020185605490322FFF78EFF03E000200D
:104C20001856FFF78DFF08BD20000020254B00001F
:104C3000014B19627047C046D803002008B5FDF744
:104C400069FF08BD30B587B0041CFFF79FFF134B09
:104C500068460093FEF756FF051E02D0031C0D3375
:104C600019D1FEF737F90E490E48FEF74FF9211C0E
:104C700000230122293122600B7023616361A3614B
:104C800023626362084BE2611A68084B9A4202D9B8
:104C90000748FEF719FE281C07B030BD7952000006
:104CA000314C00003D4C0000BC0300204F130000BD
:104CB000FF0300000368F7B5041C002B01D1FFF7C8
:104CC000C1FFE369002B03D0002323616361A3616B
:104CD000FEF754FF251C2935002802DA042028702D
:104CE0002AE00023271C2B70283701233B7002F099
:104CF00093FD01902E7807231E4006D102F08CFD13
:104D0000019BC01A0D4B984212D9201C21224D3014
:104D1000002105F08DF82A780323134001D13B7060
:104D200004E0FFF747F80020FEF724FF287803E0AF
:104D3000301CFEF71FFFDDE7FEBDC0465FEA000046
:104D4000F0B5171C026885B0041C0E1C1D1C002A3F
:104D500001D1FFF777FFE369002B03D00023236124
:104D60006361A361301C05F059F9FF23C1B20093C0
:104D7000301C2B1C3A1CFEF793FF251C29350028FC
:104D800002DA042028702EE00023221C2B70283227
:104D900001231370029202F03FFD03902F78072346
:104DA0001F4006D102F038FD039BC01A0F4B9842FA
:104DB00015D92A780323134001D1029A13704D3478
:104DC00000212122201C05F033F8301C05F026F9C3
:104DD000311C021C201C05F009F8287803E0381C5F
:104DE000FEF7C8FEDAE705B0F0BDC0465FEA000096
:104DF00008B5131C0222FFF7A3FF08BDF0B50D1C78
:104E00000168A5B0041C161C1F1C002901D1FFF766
:104E100019FF8822002102A805F00AF8291C02A81F
:104E200005F0F4F86B460A330122DF773D331A7040
:104E3000002712AB49211F706944C0230B706B46D9
:104E40004A33A82119705A70311C13AB02A81A708A
:104E5000FEF766FF261C2936B84202DA0B203070B6
:104E600020E00A233370231C283302221A702533D2
:104E7000181C391C2122019304F0DAFF281C05F0CC
:104E8000CDF8291C021C019804F0B0FF201C6946D3
:104E9000103049310422FFF7AFFD034B21696361F4
:104EA000A161307825B0F0BDFFFFFF00F0B51E1CFA
:104EB000036887B0041C0D1C171C002B01D1FFF7E1
:104EC000C1FE0C9B7F685B6876686D680020E061BE
:104ED0000493039702960195FEF7F8FE01A8FEF7EA
:104EE000E8FE019B2361049B6361029BA36107B001
:104EF000F0BD000030B50D4C8BB0496802940494AD
:104F0000526806945B6808AC051C0391201C0021C4
:104F10000592079301F0ECFD0094281C02A904AA55
:104F200006ABFFF7C3FF0BB030BDC04690C6000014
:104F300010B5496886B0094B5268041C019104A859
:104F4000002100930293039201F0D2FD201C6946D8
:104F500002AA04ABFFF7CEFF06B010BD90C600005A
:104F60001FB54968064B041C019102A8002100935B
:104F700001F0BEFD201C694602AAFFF7D9FF1FBD44
:104F800090C6000013B5081C0C1CFEF7B9FE68465D
:104F9000FEF7B6FE002300A8C11849795A42013B2A
:104FA000A1549A1DF7D1201C16BD00697047031C3F
:104FB00029331B78032B03D0DA1F0023012A01D8E1
:104FC000031C4D33181C704770B5031C28331B7825
:104FD000041C002B15D000250020FEF7CBFD256218
:104FE000FEF782FEA8420FDB02F016FC061C256AC3
:104FF000002D0BD102F010FC094B801B984209D9FF
:1050000004E06420404209E0281C07E00023206AF5
:10501000236203E0281CFEF7ADFDE8E770BDC04643
:10502000E7030000036810B5041C002B01D1FFF753
:1050300009FE29340020FEF79DFD207810BD0000F8
:1050400030B587B0041C0D1CFFF734FE032810D0C8
:105050006946201CFFF796FF69464A780B7802A83C
:10506000064904F0A7FF201C02A9054A2B1CFFF7E4
:10507000C5FE201CFFF7D6FF07B030BD17C20000E9
:1050800028C2000008B50121FFF7DAFF08BD0000C3
:10509000F0B5041C85B0151C132900D19CE00FD875
:1050A000062900D1C6E005D8042900D0DFE000239E
:1050B000D356DBE009295BD0112900D188E0D6E086
:1050C0002A2909D003D81B2900D1C7E0CFE02C2919
:1050D0000AD032293FD0CAE00023D356002B00D19A
:1050E000C5E0293406230DE01378012B12D1031CEF
:1050F00028331B78012B07D1C069002800D0B6E007
:10510000293403232370B2E0032B00D0AFE029340D
:105110000823F7E7002B00D0A9E0021C2832127800
:10512000012A12D1021C293206211170C269002AFB
:1051300002D0036143618361002461B24D480134B0
:10514000FDF734FB0B2CF8D191E0032A00D08EE060
:1051500029340723D6E7031C28331B78012B00D002
:1051600085E0136855680361D068A5616061C7E791
:10517000131C63331E78002E23D1071C4D37311CBE
:105180002122381C04F054FE281C04F047FF291C7F
:10519000021C381C04F02AFE231C283301221A703A
:1051A000281C26616661A66104F038FF2B1CC1B281
:1051B0006233FF201A780090413B281CFEF770FDF7
:1051C00055E0031C29330B221A70FFF75BFF4EE0FA
:1051D0001378002B4BD021E00A32101C039204F00C
:1051E0001DFF261C2A36071C0021301C212204F03A
:1051F0001FFEBBB2002B04D01A1C301C039904F014
:10520000F5FD606A052300280BD10123EB562362CC
:10521000AA78231C4B331A70EA785A702934022377
:1052200070E7EA181179606A0522D21A8154013BAD
:10523000F7D2EAE7426A002A0AD06B1825331A78B7
:10524000606A06235B1A0139C2540029F5D16162F4
:10525000201C291C4D3004F0D9FE08E0006A00280B
:1052600005D0111C082204F0C1FD0023236205B003
:10527000F0BDC046EC01002008B5031C0A1C024822
:10528000191CFFF705FF08BDD8030020F8B5041C62
:10529000101C0D1C161C01F033FC0123002821D129
:1052A0002062281CFEF732F8002801DA002319E0FA
:1052B00002F0B2FA071C256A002D05D102F0ACFA03
:1052C000094BC01B984209D9216A0029EED0301C35
:1052D00001F03CFC00232362012303E0281CFEF7BD
:1052E00049FCE8E7181CF8BD1F4E000013B5002468
:1052F000211C221C231C0094064801F0EBFB064BEA
:10530000FF211A1C283214701A1C293211701C60DB
:1053100013BDC046D0030020D803002013B5026897
:105320006B46D97107335468191C0122A04716BD7A
:1053300013B503686C4607345B6A211C0122984749
:10534000012801D1207801E00120404216BD7047BC
:10535000007C40B20130431E9841C0B2704700004B
:1053600010B510214156041C002904DB0248FDF74A
:105370001DFAFF23237410BDEC01002008B5102195
:10538000415600204B1C02D00148FDF7C5F908BD6D
:10539000EC010020036870B51B69041C0E1C151C71
:1053A000984780B2002807D010216156321C2B1C70
:1053B0000348FDF7C4FA01E00120404270BDC04639
:1053C000EC010020036810B51B69041C98470028F5
:1053D00005D0102161560348FDF782FA01E0012053
:1053E000404210BDEC01002008B5102141560029B3
:1053F00003DB0348FDF772F900E0002008BDC0465A
:10540000EC01002013B510228A56041C531C06D14F
:1054100000230093191C1A1C01F05CFB02E00249F6
:10542000FDF791F9201C16BDEC01002070B510218C
:105430004156051C00204B1C0DD0074C201CFDF7CD
:105440008CF91021061C6956201CFDF786F93602DE
:105450000012304380B270BDEC01002070B5037CB7
:10546000041C0E1C151C7F2B06D8002A04D00368D0
:10547000DB6A9847002803D101236360002009E01C
:10548000102161560448321C2B1CFDF76BF90028D3
:10549000F2DD281C70BDC046EC01002000234360F3
:1054A000FA239B008360034B08330360FF230374DC
:1054B0007047C04630C2000000234360FA239B00BF
:1054C0008360024B017408330360704730C20000F0
:1054D000F0B589B004AD039302232B8049680368BB
:1054E00052BA6A806960DB6A041C9847002803D0BE
:1054F0002368201C9B6A9847184E0221301C012209
:10550000039BFDF733F8071C207423D4039BDB07B0
:105510000ED50E9B002B0BD0181CFFF77EFA0E9BAE
:10552000022200930190391C301C131CFDF78CF8EB
:1055300010212A1C6156301C1023FDF791F8051C20
:105540000120002D07D110216156301CFDF72EF9E6
:10555000FF232374002009B0F0BDC046EC010020F9
:105560001FB5054B4968029300230391009302A9DC
:10557000FFF7AEFF05B000BD90C60000F0B587B0E4
:105580000C1C071C02A8161C1D1C01F09BFA0A48E3
:10559000211C02AAFFF77AFE00280AD0074B0094CC
:1055A0000493039B381C059304A9321C2B1CFFF7A2
:1055B0008FFF07B0F0BDC046D803002090C60000A2
:1055C00008B50023FFF7DAFF08BD000007B5002388
:1055D00000930348191C1A1C01F07CFA07BDC04651
:1055E0004804002007B5002300930348191C1A1C27
:1055F00001F070FA07BDC0465004002007B5002333
:1056000000930348191C1A1C01F064FA07BDC04638
:105610005804002013B502686B46D97107335468EB
:10562000191C0122A04716BDF0B585B0019002916A
:1056300003920823C356013318D00024251C019A75
:105640000C4F082166B25156381C321CFDF7DFF8AA
:10565000002806D0381C311C029A039BFDF782F803
:105660002D180134072CEAD1281C00E0002005B0D9
:10567000F0BDC046EC01002000234360024B418195
:10568000083303607047C04678C200007FB502232C
:105690006A46138043890E1C5BBA53800023019332
:1056A00008214156041C1B4D4B1C04D0281CFDF73F
:1056B00024F8002823D10221281C0122331CFCF7E6
:1056C00055FF011C207218D4281C6A461023FCF7D1
:1056D0005FFF0821061C6156281C002E09D00022FD
:1056E000FCF78AFF061C0120002E10D1082161560C
:1056F000281CFDF75BF8FF232372002007E0082138
:105700006156281CFDF752F8FF232372D3E704B03B
:1057100070BDC046EC01002008B50021FFF7B6FFC0
:1057200008BD0000F8B5051C0E1C002A01D000239E
:105730001370082171564B1C04D01948FCF7DDFF8B
:10574000002824D0082171564B1C1CD0144C201C5E
:10575000FDF766F80024C1B2A0421BDA082167B247
:1057600071560F483A1CFDF752F8002807D00C4834
:10577000391CFCF7D1FF002801D0E1B20AE0013466
:10578000E4B2072CEAD1281CFFF788FE05E0FF23CE
:105790003372D7E7281CFFF78FFE281CF8BDC046E0
:1057A000EC01002007B5002300930348191C1A1CC4
:1057B00001F090F907BDC0466004002007B5002342
:1057C00000930348191C1A1C01F084F907BDC04658
:1057D00068040020437A002B04D18372C372C36033
:1057E00001234372704730B585B0041C02AD0068D8
:1057F0000291039201F06EFB6B79E179227A0093BA
:105800002068002301F008FC29792068029A01F041
:1058100031FB206801F054FB05B030BD70B5041CAD
:105820001826FFF7D7FF2079331C43430D4D08217D
:10583000EB18595602F094FAA079331C434308211F
:10584000EB18595602F08CFA607908214643AD19DD
:10585000695602F085FA044B201C06CBFFF7C3FF04
:1058600070BDC046B0C200007004002010B5041C1A
:10587000006801F017FB0023637210BD07B5837A3F
:1058800000910192002B0DD09A0706D5EFF31083FB
:105890005A425341C37272B604E0DA0702D58289D4
:1058A000034B9A600099019AFFF79DFF07BDC04620
:1058B00000180040837A002B0BD09A0704D5C37AD6
:1058C000002B06D062B604E0DA0702D58289014BCC
:1058D000DA6070470018004008B5006801F003FB6B
:1058E00008BD00000F4B104A10491A6000225A717F
:1058F0001A710F4B0F4819600A211971092199710A
:105900000821597103215A72DA7119720A4B186011
:105910001D2018711B2098711A205A725871DA7163
:10592000197270477004002000093D005C050020DA
:10593000780400206005002088040020836841600E
:10594000C918C1607047C368C91A01D4007D00E05E
:1059500000207047036910B5041C002B00D0984745
:1059600001F05AFF6368A060C018E06010BD00003D
:1059700038B5094B01610833036001230375002327
:10598000C360041C151C01F047FF65604519A06049
:10599000E560201CA46138BD98C2000008B502482B
:1059A00001F014FC08BDC0469804002013B512494C
:1059B000124801F0DFF91249124801F0DBF91249EF
:1059C000124801F0D7F91249124801F0D3F91249EF
:1059D000124801F0CFF9124C1249201C01F0CAF90B
:1059E0000323009301230193211C0D220E230E4853
:1059F00001F0DAFB13BDC046000800425805002044
:105A0000000C00425C0500200010004260050020F0
:105A100000140042540500200018004264050020D4
:105A200068050020001C0042980400203F207047B9
:105A300013B502686B46D97107335468191C0122EB
:105A4000A04716BD08B50069022100F01FFC08BD83
:105A500008B50069032100F02FFC08BD38B50D1C06
:105A6000041C131C006903212A1C00F015FD0028EA
:105A700001D10123636038BD10B5054C23685A1C61
:105A800004D103685B6998472060031C181C10BD93
:105A900074000020074A08B51368591C04D001217E
:105AA00049421160181C03E00069022100F0E6FC85
:105AB00008BDC0467400002008B5037803490233CE
:105AC00003704222024800F091FD08BD3000002022
:105AD000330A002010B50178031C42780020A12968
:105AE00008D1212A2FD118481849072200F07EFD3D
:105AF000012028E0212926D1202A05D11349072297
:105B0000114800F01FFC04E0222A10D19A780F4BB4
:105B1000DA710E4B96221968D200914210D1DC79CD
:105B200001231C400CD1FA2001F0DCF80AE0232A02
:105B300009D1DA789B7812021A43054B1A6002E009
:105B400001F0D6F8002010BD330A00202400002008
:105B50002C00002070470000064BFA218900996054
:105B6000054900220831196004495A6019611A7602
:105B70007047C0466C05002010C60000330A0020A4
:105B800010B507230F220240141C00093034092AE3
:105B900000DD0734CC54013BF4D210BD70B5C2B265
:105BA00019495301CB189E68184DC0242E40A405F6
:105BB00026439E60164E80010968301808325860EE
:105BC0005201505C0726B0430126304350549E6971
:105BD00035402C439C610F4C5C61505C7024A043A9
:105BE0001024204350549C680B488A18204080247D
:105BF00064032043986098684021800B800398607C
:105C000053790B43537170BD380A0020FFFFFF8F9B
:105C10005408002094060020FF3F00F038B5041C13
:105C200008CC01211A78051C0A431A708022201C16
:105C30000021520004F0FCF82B689A78D107FCD4BC
:105C40005C6238BD134BF0B51B6899035A029B0187
:105C5000C90ED20E5B0F1F2900D105211F2A00D1CA
:105C60001D22072B00D1032304688E01278D0A49CA
:105C70001F2539403143218501682A400C8DAC43F2
:105C800022430A8502681903108D044B03400B431D
:105C90001385F0BD246080003FF8FFFFFF8FFFFFFA
:105CA000EFF3108303600123436072B6704703680B
:105CB000002B02D162B6BFF36F8F704737B505690D
:105CC000041C6846002D12D1FFF7EAFF019B013B3F
:105CD00003D3621DD57FEDB2F9E768460193FFF764
:105CE000E6FF0020854217D0206AE36913E0FFF742
:105CF000D7FF019B0025013B04D3221C34321578C9
:105D0000EDB2F8E768460193FFF7D1FF0020854226
:105D100002D0206BE36AC01A3EBD0000436810B594
:105D20001A68037A01215B01D318FF339A7A0A4378
:105D30009A72037A42685B01D318C2689C68910426
:105D40000B4A090922400A439A60037A42685B01C0
:105D5000D3189A684021920B92039A6043681A689C
:105D6000037A08335B01D3181A790A431A7110BDFC
:105D7000FF3F00F0F7B50569041C0E1C171C6846B0
:105D8000002D1FD1FFF78CFF019B013B5A1C06D051
:105D9000621DD17F5A1E00293AD0131CF6E76846CF
:105DA0000193FFF784FF0025E369BD4235D0226AE5
:105DB000934232D25A1CE261A269D3181B78735500
:105DC0000135F1E7FFF76CFF019B013B5A1C08D03E
:105DD000221C343215785A1EEDB2002D18D0131C37
:105DE000F4E768460193FFF762FF0025E36ABD42CE
:105DF00026D0226B934241D322E0621D0021D1774D
:105E000030321678581E8E4214D1031C5A1CF4D11D
:105E100068460193FFF74BFF38E0226A934235D181
:105E20000023E361012323616846FFF739FF019BEB
:105E3000013BEBE71170201C0193FFF76FFFF6E7C2
:105E4000226B934222D10023E36223616846FFF76D
:105E500027FF019B013B5A1CDAD0221C343200215F
:105E6000117001321678581E8E4201D1031CF2E7E0
:105E70001170201C0193FFF751FFEAE75A1CE26200
:105E8000A26AD3181B7873550135AFE7281CFEBDF5
:105E900037B54368027A1B68083252019A18041C0D
:105EA000D0790123FF21184255D0D371A0686569CC
:105EB00062680140002D1FD1490152189168890480
:105EC000890C2162216A002942D06361A36A684675
:105ED0005360FFF7E5FE019B013B5D1C34D0621D62
:105EE0000120D0772F3211785D1EC9B21218002917
:105EF00015D111702B1CF0E74B01D3189A6892044E
:105F0000920C2263226B002A22D000226261A269D5
:105F100068465A60FFF7C4FE019B013B12E0019303
:105F200010706846FFF7C3FE15E0221C34320120D2
:105F30001070621DD17F5D1EC9B230320029EED1D2
:105F400011702B1C5D1CF0D168460193FFF7AFFE6A
:105F5000201CFFF7E3FE37BD37B500236C46E37125
:105F60000734201C0D1CFFF7A7FD2B6818182860AC
:105F700001F09EFF211C01F055FF2B6818182860C6
:105F800020783EBD03290BD10D4BB2221B68520075
:105F9000985C8021494201439954022168220CE017
:105FA00001290CD1064B92221B685200985C80217B
:105FB00049420143995402212822FF3299547047E3
:105FC000380A002038B5264B2021DA69051C0A431F
:105FD000DA61244B01201A78062402431A70224BFE
:105FE0000F221978914319701978214319701F49AC
:105FF0000C782043087019780A401A701A786021CA
:106000000A431A701A4B1B4A5A805A78D209FCD19B
:10601000194801F0FBFB194C201CFFF7FFFD201C69
:10602000FFF710FE23687F2219780A401A701A7849
:1060300004210A431A701A890C218A431A81C1214A
:106040000F4A890050580002000A50508021116008
:106050001A7802210A431A7001232B7038BDC046FA
:1060600000040040584400413C4400415944004170
:10607000000C004006400000696A0000380A002059
:1060800000E100E00078002810D0094B01211B68D6
:106090001A898A431A811A8B08210A431A831A8B98
:1060A00004210A431A83034B00221A607047C0463A
:1060B000380A00203C0B00200F4B9A69920B920388
:1060C0009A611B680222FF331A7298798022524229
:1060D00002439A711A7A9007FCD5084B081C997AEA
:1060E0007F221040914301439972997A8022524253
:1060F0000A439A727047C046380A00200050004197
:1061000010B50B790C1C002B0BD1081CFFF7E2FC1F
:10611000002804D1094B9A69920B92039A610120DD
:106120000BE001F0C5FE211C01F0B0FE0028F6D105
:10613000024B9A69920B92039A6110BD380A0020B3
:10614000F8B50D1C832A16D1CAB242495301CB18A7
:106150009C694148AD012040C024A40520439861BA
:106160003E48083245195D610B685201D15C7020D0
:106170008143402065E0022A45D1382001F090FBA0
:10618000374B344F8026036076000023421D0362A4
:1061900003614361C36147608560C660D3772F3276
:1061A000041CC36203631370301C537003F00AFEB7
:1061B000A061301C03F006FEFF232A1C1A40520186
:1061C000A062BF18B968244A07260A40C021890581
:1061D0000A43BA60A168626819401268083149012F
:1061E000885CAD00B043032630438854A1686268E0
:1061F0000B405B01A169D3185960201CFFF78EFD8D
:10620000184BEC5025E0822A1ED1CAB21149530125
:10621000CB189C691048AD012040C024A405204340
:1062200098610E48083245195D610B685201991852
:106230000C798020404220430871D15C702081435A
:1062400030200143D15404E0002A02D1081CFFF79A
:10625000A5FCF8BD380A0020FFFFFF8F9406002040
:1062600040C60000140A002038B5051C0124064B66
:10627000A200D258002A06D0211C281C0134FFF7A6
:106280005FFFE4B2F3E738BD7800002008B5084BA3
:106290008A00D058002803D003689B68984706E01E
:1062A000C9B2044B4901591888688004800C08BDA4
:1062B000140A0020380A002010B50C1CFFF7E6FF76
:1062C00000280CD0064BE1B21B680831490159186F
:1062D0004A7980235B4213434B710223CB7110BD7B
:1062E000380A002070B5CAB2134B14485401890112
:1062F0005918031959609D681149083229408025B1
:10630000AD022943996099684026890B89039960F9
:106310000368510159180D7935430D715101591810
:1063200089794D06FAD551015918C979CD07FAD5A1
:106330000419A068C0B270BD54080020380A0020BB
:10634000FF3F00F038B50C4B141C1B680D1CFF33CD
:106350005A7940210A435A710021FFF7C3FFA04236
:1063600000D9201C0023A34204D0044A9A5CEA54BA
:106370000133F8E738BDC046380A00205408002031
:1063800010B5C9B20C48490143189A689204920C9E
:106390003F2A08D9141C9A68403CA404920BA40C10
:1063A0009203224302E09A68920B92039A6041188A
:1063B0008868C0B210BDC046380A0020F0B51C1C69
:1063C0002A4B85B01B68061C0D1C0292002B46D080
:1063D000274B8A00D058002805D0036802995B68D3
:1063E000221C98473FE0301CFFF750FFA04204D228
:1063F000301C291CFFF74AFF041C291C301CFFF726
:10640000BFFF1C4FE9B24A010191396803928B1812
:10641000FF335A7A01210A4317495A72AB01C9184E
:106420000298221C03F0E2FC002C1BD0301C291C1B
:10643000FFF72CFF002815D1019B3A6808335B0158
:10644000D31819794020014319710121D971039999
:106450005318FF339A7A01210A439A7202E001200D
:10646000404200E0201C05B0F0BDC0463C0B0020BF
:10647000140A0020380A00205408002013B56C4686
:106480000734221C0123FFF799FF012801D120784E
:1064900001E00120404216BDF0B51C1C3A4B85B00E
:1064A0001B680E1C0292002B60D08023DB019C42F3
:1064B0005CD800220092002C56D0344DF7B22B68E5
:1064C00001933B1C0833019A5B01D3189B79DB09CC
:1064D0001AD02F4B2F49186801F082FD2E4B17213F
:1064E000584301F07DFD3B1C0833019A5B01D31832
:1064F000DB799A0708D4294B9A5D002A38D1421ECD
:10650000002835D0101CEEE7244B00229A55251E9A
:106510003F2D00D93F25224AB301D318181C0299F8
:106520002A1C039303F062FC184A7B01D318039AD8
:10653000A9045A619A69890C920B92030A439A61E1
:106540003B1C019A08335B01D3180222DA71597996
:10655000802252420A435A71009B029A5B195219D7
:106560000093641B0292A6E700980BE0012008E06C
:1065700001229A557B01ED18AB69101C9B0B9B0304
:10658000AB61404205B0F0BD3C0B0020380A002052
:10659000A400002040420F00701101008C06002072
:1065A0009406002070B50E4D1C1C8B01ED18281CA4
:1065B0000E1C111C221C03F019FCF6B209497601CD
:1065C00089194D618A69084B201C13408B618B69C6
:1065D000A2049B0B920C9B0313438B6170BDC046BE
:1065E00094060020380A0020FF3F00F0F7B5114B59
:1065F00001901B780F1C141C002B19D10E4B1E7818
:10660000002E01D1151C08E00C4D0D482E88801974
:10661000361903F0EBFB2E800AE0002D08D0BA19E2
:106620002B1C01980021FFF7BDFF36182D1AF4E747
:10663000201CFEBD320A0020300A00208A060020FD
:1066400089050020F8B50E1C00AF151E012D28D9B4
:10665000D31DDB08DB006A46D21A9546081C03F0FE
:10666000DDFC01306C464000032320706370022281
:10667000AA420ED23378002B0BD0511CC9B201367E
:10668000A354A94204D0002302326354D2B2EFE7EC
:106690002A1C0548211CFFF7A9FF431E9841C0B2E0
:1066A00000E00020BD46F8BD330A002008B5044BC9
:1066B00000221A70034B04491A88FFF797FF08BDA0
:1066C000300A00208A06002089050020F0B5204A03
:1066D00087B001230026009102A91370051C0296C1
:1066E000FFF73AFC03AC092701903A1C201C311C2F
:1066F00003F09EFB02236370A023E371FA2323724D
:10670000029B0122DB196380019B62712371104A95
:10671000009B27701670BB4205D1281C211C1A1C37
:10672000FFF764FF11E00B4B01221A700A4B211C8A
:106730003A1C281C1E800296FFF758FF281C02A94D
:10674000FFF70AFC281CFFF7B1FF012007B0F0BDDE
:10675000320A0020300A00208A06002070B5CE7868
:1067600092B0051C0C1C022E08D1C9882D48FFF7D9
:10677000ADFF031C581E8341D8B251E001F098FBD5
:10678000211C01F064FB002803D0C3171B1AD80F8B
:1067900046E0012E04D1E2882349112A3BD837E094
:1067A000032E3DD1A278002A05D12049E2880B783A
:1067B00093422DD82FE0022A03D1A279281C1C492C
:1067C00004E0012A05D1A2791A49281CFFF73AFFF3
:1067D00026E0032A24D1184B01A91868FFF7D0F945
:1067E000164B03A91868FFF7CBF9154B05A91868D4
:1067F000FFF7C6F9134B07A91868FFF7C1F901F0B5
:1068000057FB09A901F033FBA279281C01A9DDE798
:10681000D2B2002A00D10A78281CFFF7E7FE012037
:1068200012B070BD330A002060C600005CC60000D4
:1068300072C6000050C600000CA0800040A080007E
:1068400044A0800048A0800073B5051C48780C1C4B
:106850000B2878D801F0BAFB081C7728773E43064E
:10686000474B686F00206FE0097801AA002903D127
:1068700011705170281C09E0002313705370334BC2
:106880001B78012B00D11370281C002102234FE03C
:106890008A780023012A04D101AA137053702C4B6B
:1068A000EEE72A4A137049E08E78012E07D1284B73
:1068B00001AA00211E701170281C331C38E0002E24
:1068C00008D1224A01231370224A9169890B890356
:1068D000916138E0A178281CFFF7EEFB33E0281C1B
:1068E000FFF73CFF30E0281C00211B4A1FE00A781C
:1068F0000020D30628D1281CFFF7B6FCA278154942
:10690000154B02241A600A682A23FF33D05C204307
:10691000D0544A20FF30145C01231C4314548A696C
:10692000920B92038A610EE00C4A281C002101237D
:10693000FFF738FE07E08A78084B1A60054B9A6922
:10694000920B92039A61012076BDC0468805002013
:10695000310A0020380A00203C0B0020340A0020B5
:10696000F8B53B4B071C1C78002C6FD1394D2868BB
:10697000838B19070DD5201CFFF710F92B68102009
:106980001A1CFF32917A01439172334A1460082233
:106990009A832B689A8B500701D504229A83FF3380
:1069A0001A7AD10626D510221A725A7940210A4342
:1069B0002A495A710A786023381C1A4202D1FFF71B
:1069C00043FF01E0FFF79CFB002806D02B688022E4
:1069D000FF33997952420A4301E0214B20229A71F8
:1069E0002B68FF331A7A500604D540221A72597A5E
:1069F0000A435A722968FE230E8C00241E40E1B21D
:106A0000002E23D0321C012322411A4216D0221C10
:106A10002868083252018218D079184203D1D279FD
:106A2000DA401A4207D00F4BA200D058002809D0F4
:106A300003681B6898470123A3409E430134092C37
:106A4000DDD103E0381CFFF79DFAF4E7F8BDC0463E
:106A5000300A0020380A00203C0B00205408002097
:106A6000FF500041140A002008B50248FFF778FFE4
:106A700008BDC046330A0020014A024B1A60704725
:106A800000500041380A0020F7B5002401900D1C89
:106A9000261C019A281C131919790A2200F01DF9E5
:106AA0002E21071C281C00F095F80134C719F6198F
:106AB000032CEED1019B281CD9790A2200F00DF994
:106AC0003018FEBD024B083303600023436070475B
:106AD00088C6000030B503AC044D24780835056045
:106AE000017142718371C47130BDC04688C6000017
:106AF000024B4160083303607047C04688C60000FF
:106B0000002230B5131C051C0C78002C16D0201C5C
:106B100030380131092807D80A204343303B1B197C
:106B20009BB2FF2BF0D90FE02E2C0DD1032A0BD0F6
:106B3000501CAA181371C2B20023E5E7201C032AD7
:106B400003D1EB71012000E0002030BD41607047AF
:106B5000044A054B08321A6000221A715A719A7160
:106B6000DA71704788C60000400B0020F7B58A181C
:106B7000061C0D1C01920C1C019B671B9C4207D03C
:106B8000336821781B68301C984701340028F3D102
:106B9000381CFEBD08B50368C9B21B68984708BD1C
:106BA00038B5051C0C1C081E07D003F037FA2B68FB
:106BB000021C5B68281C211C984738BD10B504686E
:106BC0000B1C9A6809686368984710BD08B5FFF701
:106BD000E7FF08BD08B503681B68984708BD10B5F6
:106BE0000A68041C1268081C211C904710BD000094
:106BF00008B50249FFF7D4FF08BDC04698C600009B
:106C000038B5041CFFF7DAFF051C201CFFF7F0FF66
:106C1000401938BD38B5041CFFF7C2FF051C201C05
:106C2000FFF7E6FF281838BD38B5041CFFF7D7FF7B
:106C3000051C201CFFF7DCFF401938BDF0B58DB0F6
:106C4000161C0BAB002201900C1C1A70012E00D8F0
:106C50000A266D462B35201C311C01F005FA201C3C
:106C6000CFB2311C01F0BCF9291C041C092F01D83A
:106C7000303700E03737FFB22F70013D002CEAD1EA
:106C80000198FFF78DFF0DB0F0BDF8B5041C0D1C89
:106C9000161E04D10368C9B21B68984712E00A2A7D
:106CA0000DD100290ADA2D21FFF794FF6942071C54
:106CB000321C201CFFF7C2FFC01903E000E0D2B273
:106CC000FFF7BCFFF8BD08B5002A02D1FFF762FF4D
:106CD00002E0D2B2FFF7B2FF08BD08B5FFF7F3FF3D
:106CE00008BD0000014B18607047C046A00000209E
:106CF000024B012252421A607047C046A000002099
:106D0000154A1368581C25D0013B1360002B21D174
:106D100072B6124A124B04329A4207D8BFF34F8F11
:106D2000104A114BDA60BFF34F8F11E00F4B197D02
:106D3000C807FBD5188B2021FF3192085200014370
:106D40001983DA610A4A1A801A7DD107FCD5E5E772
:106D5000C046FDE77047C046A000002000200000AC
:106D6000030200000400FA0500ED00E000400041CD
:106D700002A5FFFF01607047F7B508AC26780468EC
:106D80009D1E27686C1EA541ECB2920705683A4328
:106D900027063A432A600268072529405068B50152
:106DA000002C00D05C03294301430C435460F7BD21
:106DB00030B50368C0251C68AD0312052A40224384
:106DC000C024A402090421401143196003685A68D1
:106DD00014435C6030BD036801211A680A431A60DD
:106DE0000268116801231942FBD1D1691942F8D117
:106DF0007047036802211A680A431A600268D3695F
:106E00009907FCD4704703681A7ED10702D41A7E12
:106E10009107FCD57047036800225A8370470368C6
:106E2000187E4007C00F70470368187EC00970477E
:106E300003688022197E52420A431A76704703681B
:106E4000187E0123184070470368188DC0B2704740
:106E500003681A7E01200242FBD01985704703683F
:106E600001219A7D0A439A757047036801221A75B9
:106E70007047000070B5036801268D07ED0F3140A3
:106E80001C686D07090729432143196004685100F4
:106E9000034801F0A5F80138C0B2207370BDC046A8
:106EA000006CDC02036801211A680A431A60026858
:106EB000116801231942FBD1D1691942F8D17047F9
:106EC000036802211A680A431A600268D3699907A5
:106ED000FCD470470368DA699107FCD41A68022170
:106EE0008A431A60704703689A6A520A5202114331
:106EF000996203681A7E5107FCD5986AC0B2704740
:106F00000368224A30B5934211D0214A934211D0EE
:106F1000204A934211D0204A934211D01F4A9342F3
:106F200011D01F4A934230D10E2319220DE00923BC
:106F300014220AE00A23152207E00B23162204E09C
:106F40000C23172201E00D231822DCB21549012081
:106F50009B08A0409B0008605B180320C0218900AB
:106F600004405D58E000FF248440A5432C1CC0254C
:106F70008540281C204358508023DB011A430A4BCC
:106F80005A805A7852B2002AFBDB30BD000800421A
:106F9000000C0042001000420014004200180042A1
:106FA000001C004200E100E0000C0040F8B5041CA9
:106FB000151C0E1C1F1CFFF7A3FF201CFFF70BFF67
:106FC000B1001C220A4069072368090C0A431A60B1
:106FD000226884239375012E1AD10821012D00D136
:106FE00010210C4B79431868C00000F0F9FF2368AA
:106FF00007219A890140D2044903D20C0A439A819D
:1070000023680004C20C9889400B40031043988108
:10701000F8BDC046A4000020F7B5019308AB041CDE
:107020001F780D1C161CFFF73DFF201CFFF768FFA3
:10703000BF070C221743C022920336051640C02218
:1070400092022D0423683E430199154035430722DF
:107050001D600A408021236889020A435A60F7BDF7
:107060000120704708B50368014A1B6A984708BDAC
:107070001304000010B5041C0069FFF7ACFE201CCF
:10708000143000F03DFF201C5C3000F039FF10BDD3
:1070900008B5143000F046FF08BD10B5041C201CD4
:1070A0005C3000F03FFF0028F9D12069FFF7ABFE0C
:1070B00010BD08B55C3000F03BFF08BD70B5051C85
:1070C0001435041C281C00F01FFF231CA8331B7858
:1070D000061CFF2B0AD0281C00F02AFF0A2805DD19
:1070E000231CB033B4341B6822681A60301C70BD96
:1070F00008B5143000F026FF08BD70B5041C006907
:107100000E1CFFF79CFE251C5C35002804D0281CB3
:1071100000F008FF00280CD0281C00F01CFF0028FD
:10712000FAD1281C311C00F0E0FE2069FFF797FE21
:1071300003E02069311CFFF78BFE012070BD0000C9
:10714000F0B585B01D1C0AAB1B78041C00930BAB7B
:107150001B78161C01930CAB1B780F1C02930DAB14
:107160001B78039300234360FA239B0083600D4B3D
:1071700008330360143000F0ADFE201C5C3000F0DA
:10718000A9FE009A231CA43327619A70019A201C3F
:10719000DA70029A1E701A71039A5D701A7505B042
:1071A000F0BDC046A8C6000030B585B0041C08A8D4
:1071B000057809A8007800950190FF2002900390BF
:1071C000201CFFF7BDFF201C05B030BD38B5041CE6
:1071D0000069FFF724FE002819D02069FFF734FE6C
:1071E000251C1435011C281C00F07FFE231CA8332D
:1071F0001B78FF2B0BD0281C00F09AFE092806DC18
:10720000231C221CAC33B4321B6812681A6020693C
:10721000FFF715FE002811D0251C5C35281C00F056
:1072200081FE002807D0281C00F06EFEC1B2206944
:10723000FFF70EFE02E02069FFF717FE2069FFF757
:10724000F3FD002805D02069FFF7F2FD2069FFF764
:10725000E2FD38BDF023081C184030384342584145
:107260007047F0231B01194080239B0099420CD0EA
:10727000C0239B00994206D080235B0005209942E1
:1072800004D0002002E0072000E0062070470F2312
:107290001940012905D002394B424B410220C01A46
:1072A00000E0002070470000F0B5031C85B003919A
:1072B000A433041C182718783B1C4343344E082180
:1072C000F3185956151C00F04BFD231CA5331878F4
:1072D0003B1C43430821F318595600F041FD231C81
:1072E000A7331B78022B0AD1231CB8331878FF2848
:1072F00005D047430821F719795600F031FD271CC6
:10730000A8373878FF281AD0012100F09FFC3B787D
:1073100018225A43B3561F4FDB01211CAC31D81938
:1073200008601D49B6185B18211C7268B0310B60EB
:10733000012191400A1C211CB4310A601A6001210C
:107340000A1C039B2069FFF731FE291C201CFFF754
:1073500088FF291C071C201CFFF799FF291C061C0D
:10736000201CFFF777FF391C0090331C2069012295
:10737000FFF702FD231CA7331978013B1A78206917
:10738000FFF716FD2069FFF734FD05B0F0BDC046DC
:10739000B0C200001844004114440041F7B518235E
:1073A000434301923F4A1625D3185D57071C0091AD
:1073B000681C76D0102D74D03B4B3C4C1E68002EC0
:1073C00027D1311C44223A4802F032FD311C4422BC
:1073D000384802F02DFD384B384910221E60CA672C
:1073E000374BC02149005A50C12189005858FF2607
:1073F000B04358501A60334A334B5A8023780222E4
:10740000134323706378DB09012BFBD0264B012249
:107410001A6063690126AE40334300216361381C62
:1074200000F09EFC0099002939D0234A1368171CEC
:107430009C4600231E499A00634504D08858B042F8
:1074400003D00133F6E701333B608E50194B0099AE
:107450009950072D03DD083DAD00012301E0AD008B
:107460000023124A9B009B189A690721A9400198A2
:107470008A439A61042812D89A6900F0A7FD03058F
:1074800007090B00052106E0042104E0032102E0C6
:10749000022100E00121A9400D1C15439D61B6B2F7
:1074A000E660F7BDB0C20000D40B00200018004019
:1074B0008C0B0020480B0020D00B002004E100E0E2
:1074C00000E100E005400000000C00401823584394
:1074D000174B70B518181623C3565A1C26D0102BFC
:1074E00024D001229A40134B91B2996059691248F5
:1074F0009143596101680023051C8B4216D00F4847
:107500009C002458944201D00133F6E74A1E93426E
:107510000BD201339A0086588418043C2660084C2C
:107520001659A218043A1660F0E72A6070BDC046EA
:10753000B0C2000000180040D00B00208C0B0020CF
:10754000480B0020F8B50024094B1B689C420DD263
:10755000084E094FA5003369EA591A4204D0074B77
:10756000EB589847EB5933610134EDE7F8BDC0465D
:10757000D00B0020001800408C0B0020480B00208E
:1075800010B5041C006802F027FC201C10BD10B5CB
:10759000041C0068002801D002F01EFC00232360B8
:1075A000A360636010BD38B5041C0D1C0068013178
:1075B00002F0E2FC002801D021C4012038BD03689C
:1075C00010B5041C002B02D043688B4209D2201C4A
:1075D000FFF7E9FF002805D0A368002B01D122683E
:1075E0001370012010BD70B50E1C111C041C151C5D
:1075F000FFF7E5FF002803D1201CFFF7C8FF04E0D8
:10760000A5602068311C02F001FD201C70BD38B55A
:107610000023041C0D1C036043608360994207D063
:10762000081C02F0FBFC291C021C201CFFF7DBFFDE
:10763000201C38BD10B50B1C041E8C4208D00968F4
:10764000002903D09A68FFF7CEFF01E0FFF79FFF04
:10765000201C10BD10B50023041C03604360836030
:10766000FFF7E8FF201C10BD38B5041C0D1E08D024
:10767000081C02F0D3FC291C021C201CFFF7B3FFDE
:1076800001E0FFF784FF201C38BDF8B5041C0F1C77
:10769000866801D100250FE00125002A0CD096193B
:1076A000311CFFF78CFF0028F4D02268A368391C36
:1076B000D01802F0ABFCA660281CF8BD07B500226C
:1076C00001AB19705A70191C0122FFF7DEFF0EBDC5
:1076D0000B1C10B509689A68041CFFF7D6FF002838
:1076E00002D1201CFFF753FF201C10BD38B5041C2D
:1076F0000D1E09D0081C02F091FC291C021C201C44
:10770000FFF7C3FF002802D1201CFFF740FF201C19
:1077100038BD08B503680A1C0968002B02D000298F
:107720000ED107E000290FD09368002B0CD0087809
:1077300040420AE08268081C002A06D0187804E05B
:10774000181C02F059FC00E0002008BD10B582684A
:107750008C680023A24204D1FFF7DBFF4342434180
:10776000DBB2181C10BD10B58A688468031C0020A9
:1077700094420CD31B68834209D00968814206D029
:10778000A21A981802F038FC43425841C0B210BD0A
:10779000FEE7000008B5034B1B68002B00D098479C
:1077A00008BDC046D80B002038B50F490F4CA14288
:1077B00004D100F07DF800F053F80BE00C4D8D4241
:1077C000F7D00023CA18E818A24204D20068043394
:1077D0001060F7E7FEE79042EBD0064B064A934273
:1077E000E7D2002204C3F9E700000020A001002036
:1077F00018C90000A0010020E40C002008B500F02A
:107800002CF8002801D100F01DF808BD014B1860CC
:107810007047C046D80B0020014B18687047C0461F
:10782000DC0B002070B5041E08D0054B1D681E1C23
:1078300000F012F833685B1BA342F9D370BDC04659
:10784000DC0B002008B5034B1A6801321A60FFF701
:1078500057FA08BDDC0B00207047002070477047C6
:1078600010B500F0D9F802F087FAFFF7F8FF012011
:10787000FFF7D8FF084C201CFEF7A4FB201CFEF7E6
:1078800001FCFAF7CFFDFAF721FE044B002BFAD0EA
:1078900000E000BFF7E7C046330A00200000000008
:1078A00008B502F08FFA08BD08B502F095FA08BDD8
:1078B00070B5494A1E21536802208B430343474950
:1078C00053608B69082423438B61454C454B9C8254
:1078D0009C8A20439882101CDA689407FCD5424A9F
:1078E000012414701478E50704D53F4C647864B221
:1078F000002CF7DB01249460547864B2002CFBDB8D
:107900003A4D394C6560547864B2002CFBDB82251B
:10791000354CED016580547864B2002CFBDB022409
:107920009C84DC68E606FCD5314D2E4CE562DD68B2
:107930002C4CEE06FBD5A58C2E4E3543A584DD6878
:10794000284CEE06FBD5A58C02263543A584DC68C1
:107950002506FCD5234CE4686606F8D5DC68E50608
:10796000FCD500249460547864B2002CFBDB224DDB
:107970001D4C656055781C4C6DB2002DFADB1E6AFB
:107980001E4D35401D621D6A8026B5431D620323CE
:10799000A3601B4B636053785BB2002BFBDB0023BF
:1079A0000B72184A4B728B72CB72174BFF211A6005
:1079B000164B174A1B6812685C01D20E2140114316
:1079C0009A06520F12020B1C1343124A1385436886
:1079D00080221343436070BD00400041000400401A
:1079E0000C06000000080040000C004001050100EA
:1079F000B905FF7D040A000000070300FFFCFFFF3C
:107A000003060100006CDC02A4000020246080005A
:107A10002060800000400042314BFA21186810B508
:107A2000890000F0DDFA2F4B0138984224D82E4A05
:107A30002E4B5060186AC0210002000A090601435B
:107A400019620024072194601160196A80220902DA
:107A5000090A12060A431A62254BFC211A6A0A43D4
:107A60001A62196AFC2292010A431A62196AA02258
:107A7000D2020A431A6200E0FEE7201C0021013412
:107A800000F0E4F8162CF8D11A4C63785BB2002BA6
:107A9000FADB194B6380194B5A7ED209012AFAD0BE
:107AA000E422D2009A803F22DA70597E134AC90933
:107AB0000129FAD0C0235B0100201361907000F00F
:107AC0002DF863785BB2002BFBDB0D4A094B5A8023
:107AD0000C4BDA79D209012AFAD041225A7010BD32
